{
  "contractName": "KIManagement",
  "abi": [
    {
      "inputs": [],
      "stateMutability": "nonpayable",
      "type": "constructor"
    },
    {
      "anonymous": false,
      "inputs": [
        {
          "indexed": true,
          "internalType": "address",
          "name": "kiAddress",
          "type": "address"
        },
        {
          "indexed": false,
          "internalType": "uint256",
          "name": "documentIndex",
          "type": "uint256"
        },
        {
          "indexed": false,
          "internalType": "string",
          "name": "documentHash",
          "type": "string"
        }
      ],
      "name": "DocumentUploaded",
      "type": "event"
    },
    {
      "anonymous": false,
      "inputs": [
        {
          "indexed": true,
          "internalType": "address",
          "name": "kiAddress",
          "type": "address"
        },
        {
          "indexed": false,
          "internalType": "uint256",
          "name": "documentIndex",
          "type": "uint256"
        }
      ],
      "name": "DocumentVerified",
      "type": "event"
    },
    {
      "anonymous": false,
      "inputs": [
        {
          "indexed": true,
          "internalType": "address",
          "name": "kiAddress",
          "type": "address"
        },
        {
          "indexed": false,
          "internalType": "string",
          "name": "name",
          "type": "string"
        }
      ],
      "name": "KIRegistered",
      "type": "event"
    },
    {
      "anonymous": false,
      "inputs": [
        {
          "indexed": true,
          "internalType": "address",
          "name": "kiAddress",
          "type": "address"
        }
      ],
      "name": "KIVerified",
      "type": "event"
    },
    {
      "inputs": [],
      "name": "admin",
      "outputs": [
        {
          "internalType": "address",
          "name": "",
          "type": "address"
        }
      ],
      "stateMutability": "view",
      "type": "function"
    },
    {
      "inputs": [
        {
          "internalType": "address",
          "name": "",
          "type": "address"
        }
      ],
      "name": "keyIndividuals",
      "outputs": [
        {
          "internalType": "string",
          "name": "name",
          "type": "string"
        },
        {
          "internalType": "string",
          "name": "qualification",
          "type": "string"
        },
        {
          "internalType": "string",
          "name": "licenseType",
          "type": "string"
        },
        {
          "internalType": "string",
          "name": "experience",
          "type": "string"
        },
        {
          "internalType": "uint256",
          "name": "documentCount",
          "type": "uint256"
        },
        {
          "internalType": "bool",
          "name": "isVerified",
          "type": "bool"
        }
      ],
      "stateMutability": "view",
      "type": "function"
    },
    {
      "inputs": [
        {
          "internalType": "string",
          "name": "_name",
          "type": "string"
        },
        {
          "internalType": "string",
          "name": "_qualification",
          "type": "string"
        },
        {
          "internalType": "string",
          "name": "_licenseType",
          "type": "string"
        },
        {
          "internalType": "string",
          "name": "_experience",
          "type": "string"
        }
      ],
      "name": "registerKI",
      "outputs": [],
      "stateMutability": "nonpayable",
      "type": "function"
    },
    {
      "inputs": [
        {
          "internalType": "string",
          "name": "_documentHash",
          "type": "string"
        }
      ],
      "name": "uploadDocument",
      "outputs": [],
      "stateMutability": "nonpayable",
      "type": "function"
    },
    {
      "inputs": [
        {
          "internalType": "address",
          "name": "_kiAddress",
          "type": "address"
        },
        {
          "internalType": "uint256",
          "name": "_documentIndex",
          "type": "uint256"
        }
      ],
      "name": "verifyDocument",
      "outputs": [],
      "stateMutability": "nonpayable",
      "type": "function"
    },
    {
      "inputs": [
        {
          "internalType": "address",
          "name": "_kiAddress",
          "type": "address"
        }
      ],
      "name": "getKIDetails",
      "outputs": [
        {
          "internalType": "string",
          "name": "name",
          "type": "string"
        },
        {
          "internalType": "string",
          "name": "qualification",
          "type": "string"
        },
        {
          "internalType": "string",
          "name": "licenseType",
          "type": "string"
        },
        {
          "internalType": "string",
          "name": "experience",
          "type": "string"
        },
        {
          "internalType": "uint256",
          "name": "documentCount",
          "type": "uint256"
        },
        {
          "internalType": "bool",
          "name": "isVerified",
          "type": "bool"
        }
      ],
      "stateMutability": "view",
      "type": "function"
    },
    {
      "inputs": [
        {
          "internalType": "address",
          "name": "_kiAddress",
          "type": "address"
        },
        {
          "internalType": "uint256",
          "name": "_documentIndex",
          "type": "uint256"
        }
      ],
      "name": "getDocumentDetails",
      "outputs": [
        {
          "internalType": "string",
          "name": "hash",
          "type": "string"
        },
        {
          "internalType": "bool",
          "name": "isVerified",
          "type": "bool"
        }
      ],
      "stateMutability": "view",
      "type": "function"
    }
  ],
  "bytecode": "0x608060405234801561000f575f80fd5b503360015f6101000a81548173ffffffffffffffffffffffffffffffffffffffff021916908373ffffffffffffffffffffffffffffffffffffffff1602179055506118048061005d5f395ff3fe608060405234801561000f575f80fd5b506004361061007b575f3560e01c8063b7f5576d11610059578063b7f5576d14610101578063bab1104e1461011d578063e2d915cd14610139578063f851a4401461016e5761007b565b806323b60fd91461007f5780633e9db283146100b05780639d5caf74146100cc575b5f80fd5b61009960048036038101906100949190610e30565b61018c565b6040516100a7929190610f12565b60405180910390f35b6100ca60048036038101906100c5919061106c565b6102d5565b005b6100e660048036038101906100e19190611140565b610460565b6040516100f89695949392919061117a565b60405180910390f35b61011b600480360381019061011691906111f5565b6106bb565b005b61013760048036038101906101329190610e30565b610820565b005b610153600480360381019061014e9190611140565b610ac3565b6040516101659695949392919061117a565b60405180910390f35b610176610d6d565b604051610183919061124b565b60405180910390f35b60605f805f808673ffffffffffffffffffffffffffffffffffffffff1673ffffffffffffffffffffffffffffffffffffffff1681526020019081526020015f20905080600501548410610214576040517f08c379a000000000000000000000000000000000000000000000000000000000815260040161020b906112ae565b60405180910390fd5b5f816004015f8681526020019081526020015f209050805f01816001015f9054906101000a900460ff1681805461024a906112f9565b80601f0160208091040260200160405190810160405280929190818152602001828054610276906112f9565b80156102c15780601f10610298576101008083540402835291602001916102c1565b820191905f5260205f20905b8154815290600101906020018083116102a457829003601f168201915b505050505091509350935050509250929050565b5f805f3373ffffffffffffffffffffffffffffffffffffffff1673ffffffffffffffffffffffffffffffffffffffff1681526020019081526020015f205f01805461031f906112f9565b905014610361576040517f08c379a000000000000000000000000000000000000000000000000000000000815260040161035890611373565b60405180910390fd5b5f805f3373ffffffffffffffffffffffffffffffffffffffff1673ffffffffffffffffffffffffffffffffffffffff1681526020019081526020015f20905084815f0190816103b0919061152e565b50838160010190816103c2919061152e565b50828160020190816103d4919061152e565b50818160030190816103e6919061152e565b505f81600501819055505f816006015f6101000a81548160ff0219169083151502179055503373ffffffffffffffffffffffffffffffffffffffff167f1bee31b285db69ab6eb80f05681ff4849ee8e4508c38ca8c0a7ea20b1df95adc8660405161045191906115fd565b60405180910390a25050505050565b5f602052805f5260405f205f91509050805f01805461047e906112f9565b80601f01602080910402602001604051908101604052809291908181526020018280546104aa906112f9565b80156104f55780601f106104cc576101008083540402835291602001916104f5565b820191905f5260205f20905b8154815290600101906020018083116104d857829003601f168201915b50505050509080600101805461050a906112f9565b80601f0160208091040260200160405190810160405280929190818152602001828054610536906112f9565b80156105815780601f1061055857610100808354040283529160200191610581565b820191905f5260205f20905b81548152906001019060200180831161056457829003601f168201915b505050505090806002018054610596906112f9565b80601f01602080910402602001604051908101604052809291908181526020018280546105c2906112f9565b801561060d5780601f106105e45761010080835404028352916020019161060d565b820191905f5260205f20905b8154815290600101906020018083116105f057829003601f168201915b505050505090806003018054610622906112f9565b80601f016020809104026020016040519081016040528092919081815260200182805461064e906112f9565b80156106995780601f1061067057610100808354040283529160200191610699565b820191905f5260205f20905b81548152906001019060200180831161067c57829003601f168201915b505050505090806005015490806006015f9054906101000a900460ff16905086565b5f805f3373ffffffffffffffffffffffffffffffffffffffff1673ffffffffffffffffffffffffffffffffffffffff1681526020019081526020015f2090505f815f018054610709906112f9565b90500361074b576040517f08c379a000000000000000000000000000000000000000000000000000000000815260040161074290611667565b60405180910390fd5b60405180604001604052808381526020015f1515815250816004015f836005015481526020019081526020015f205f820151815f01908161078c919061152e565b506020820151816001015f6101000a81548160ff0219169083151502179055509050503373ffffffffffffffffffffffffffffffffffffffff167fdbf93cdefa5fd75a260713231f3452706be0547b64c93a47fef6198769398fff8260050154846040516107fb929190611685565b60405180910390a2806005015f815480929190610817906116e0565b91905055505050565b60015f9054906101000a900473ffffffffffffffffffffffffffffffffffffffff1673ffffffffffffffffffffffffffffffffffffffff163373ffffffffffffffffffffffffffffffffffffffff16146108af576040517f08c379a00000000000000000000000000000000000000000000000000000000081526004016108a690611797565b60405180910390fd5b5f805f8473ffffffffffffffffffffffffffffffffffffffff1673ffffffffffffffffffffffffffffffffffffffff1681526020019081526020015f2090505f815f0180546108fd906112f9565b90500361093f576040517f08c379a000000000000000000000000000000000000000000000000000000000815260040161093690611667565b60405180910390fd5b80600501548210610985576040517f08c379a000000000000000000000000000000000000000000000000000000000815260040161097c906112ae565b60405180910390fd5b6001816004015f8481526020019081526020015f206001015f6101000a81548160ff0219169083151502179055508273ffffffffffffffffffffffffffffffffffffffff167f5e60b20b1e57e46b947931427afbd55ac1eca70b5b0590206f576cbc0da59644836040516109f991906117b5565b60405180910390a25f600190505f5b8260050154811015610a5657826004015f8281526020019081526020015f206001015f9054906101000a900460ff16610a43575f9150610a56565b8080610a4e906116e0565b915050610a08565b508015610abd576001826006015f6101000a81548160ff0219169083151502179055508373ffffffffffffffffffffffffffffffffffffffff167f0b1d3de35deb6361a1ee7163fced02ebab2cd2507cad6286b57ab51e2717c32760405160405180910390a25b50505050565b6060806060805f805f805f8973ffffffffffffffffffffffffffffffffffffffff1673ffffffffffffffffffffffffffffffffffffffff1681526020019081526020015f209050805f018160010182600201836003018460050154856006015f9054906101000a900460ff16858054610b3b906112f9565b80601f0160208091040260200160405190810160405280929190818152602001828054610b67906112f9565b8015610bb25780601f10610b8957610100808354040283529160200191610bb2565b820191905f5260205f20905b815481529060010190602001808311610b9557829003601f168201915b50505050509550848054610bc5906112f9565b80601f0160208091040260200160405190810160405280929190818152602001828054610bf1906112f9565b8015610c3c5780601f10610c1357610100808354040283529160200191610c3c565b820191905f5260205f20905b815481529060010190602001808311610c1f57829003601f168201915b50505050509450838054610c4f906112f9565b80601f0160208091040260200160405190810160405280929190818152602001828054610c7b906112f9565b8015610cc65780601f10610c9d57610100808354040283529160200191610cc6565b820191905f5260205f20905b815481529060010190602001808311610ca957829003601f168201915b50505050509350828054610cd9906112f9565b80601f0160208091040260200160405190810160405280929190818152602001828054610d05906112f9565b8015610d505780601f10610d2757610100808354040283529160200191610d50565b820191905f5260205f20905b815481529060010190602001808311610d3357829003601f168201915b505050505092509650965096509650965096505091939550919395565b60015f9054906101000a900473ffffffffffffffffffffffffffffffffffffffff1681565b5f604051905090565b5f80fd5b5f80fd5b5f73ffffffffffffffffffffffffffffffffffffffff82169050919050565b5f610dcc82610da3565b9050919050565b610ddc81610dc2565b8114610de6575f80fd5b50565b5f81359050610df781610dd3565b92915050565b5f819050919050565b610e0f81610dfd565b8114610e19575f80fd5b50565b5f81359050610e2a81610e06565b92915050565b5f8060408385031215610e4657610e45610d9b565b5b5f610e5385828601610de9565b9250506020610e6485828601610e1c565b9150509250929050565b5f81519050919050565b5f82825260208201905092915050565b5f5b83811015610ea5578082015181840152602081019050610e8a565b5f8484015250505050565b5f601f19601f8301169050919050565b5f610eca82610e6e565b610ed48185610e78565b9350610ee4818560208601610e88565b610eed81610eb0565b840191505092915050565b5f8115159050919050565b610f0c81610ef8565b82525050565b5f6040820190508181035f830152610f2a8185610ec0565b9050610f396020830184610f03565b9392505050565b5f80fd5b5f80fd5b7f4e487b71000000000000000000000000000000000000000000000000000000005f52604160045260245ffd5b610f7e82610eb0565b810181811067ffffffffffffffff82111715610f9d57610f9c610f48565b5b80604052505050565b5f610faf610d92565b9050610fbb8282610f75565b919050565b5f67ffffffffffffffff821115610fda57610fd9610f48565b5b610fe382610eb0565b9050602081019050919050565b828183375f83830152505050565b5f61101061100b84610fc0565b610fa6565b90508281526020810184848401111561102c5761102b610f44565b5b611037848285610ff0565b509392505050565b5f82601f83011261105357611052610f40565b5b8135611063848260208601610ffe565b91505092915050565b5f805f806080858703121561108457611083610d9b565b5b5f85013567ffffffffffffffff8111156110a1576110a0610d9f565b5b6110ad8782880161103f565b945050602085013567ffffffffffffffff8111156110ce576110cd610d9f565b5b6110da8782880161103f565b935050604085013567ffffffffffffffff8111156110fb576110fa610d9f565b5b6111078782880161103f565b925050606085013567ffffffffffffffff81111561112857611127610d9f565b5b6111348782880161103f565b91505092959194509250565b5f6020828403121561115557611154610d9b565b5b5f61116284828501610de9565b91505092915050565b61117481610dfd565b82525050565b5f60c0820190508181035f8301526111928189610ec0565b905081810360208301526111a68188610ec0565b905081810360408301526111ba8187610ec0565b905081810360608301526111ce8186610ec0565b90506111dd608083018561116b565b6111ea60a0830184610f03565b979650505050505050565b5f6020828403121561120a57611209610d9b565b5b5f82013567ffffffffffffffff81111561122757611226610d9f565b5b6112338482850161103f565b91505092915050565b61124581610dc2565b82525050565b5f60208201905061125e5f83018461123c565b92915050565b7f496e76616c696420646f63756d656e7420696e646578000000000000000000005f82015250565b5f611298601683610e78565b91506112a382611264565b602082019050919050565b5f6020820190508181035f8301526112c58161128c565b9050919050565b7f4e487b71000000000000000000000000000000000000000000000000000000005f52602260045260245ffd5b5f600282049050600182168061131057607f821691505b602082108103611323576113226112cc565b5b50919050565b7f4b4920616c7265616479207265676973746572656400000000000000000000005f82015250565b5f61135d601583610e78565b915061136882611329565b602082019050919050565b5f6020820190508181035f83015261138a81611351565b9050919050565b5f819050815f5260205f209050919050565b5f6020601f8301049050919050565b5f82821b905092915050565b5f600883026113ed7fffffffffffffffffffffffffffffffffffffffffffffffffffffffffffffffff826113b2565b6113f786836113b2565b95508019841693508086168417925050509392505050565b5f819050919050565b5f61143261142d61142884610dfd565b61140f565b610dfd565b9050919050565b5f819050919050565b61144b83611418565b61145f61145782611439565b8484546113be565b825550505050565b5f90565b611473611467565b61147e818484611442565b505050565b5b818110156114a1576114965f8261146b565b600181019050611484565b5050565b601f8211156114e6576114b781611391565b6114c0846113a3565b810160208510156114cf578190505b6114e36114db856113a3565b830182611483565b50505b505050565b5f82821c905092915050565b5f6115065f19846008026114eb565b1980831691505092915050565b5f61151e83836114f7565b9150826002028217905092915050565b61153782610e6e565b67ffffffffffffffff8111156115505761154f610f48565b5b61155a82546112f9565b6115658282856114a5565b5f60209050601f831160018114611596575f8415611584578287015190505b61158e8582611513565b8655506115f5565b601f1984166115a486611391565b5f5b828110156115cb578489015182556001820191506020850194506020810190506115a6565b868310156115e857848901516115e4601f8916826114f7565b8355505b6001600288020188555050505b505050505050565b5f6020820190508181035f8301526116158184610ec0565b905092915050565b7f4b49206e6f7420726567697374657265640000000000000000000000000000005f82015250565b5f611651601183610e78565b915061165c8261161d565b602082019050919050565b5f6020820190508181035f83015261167e81611645565b9050919050565b5f6040820190506116985f83018561116b565b81810360208301526116aa8184610ec0565b90509392505050565b7f4e487b71000000000000000000000000000000000000000000000000000000005f52601160045260245ffd5b5f6116ea82610dfd565b91507fffffffffffffffffffffffffffffffffffffffffffffffffffffffffffffffff820361171c5761171b6116b3565b5b600182019050919050565b7f4f6e6c792061646d696e2063616e20706572666f726d207468697320616374695f8201527f6f6e000000000000000000000000000000000000000000000000000000000000602082015250565b5f611781602283610e78565b915061178c82611727565b604082019050919050565b5f6020820190508181035f8301526117ae81611775565b9050919050565b5f6020820190506117c85f83018461116b565b9291505056fea2646970667358221220ce92227b9a695dbc1c6ad20e38387d97ba3e6b4073c5bb39aa34563e9c3e9bbc64736f6c63430008150033",
  "immutableReferences": {},
  "source": "// SPDX-License-Identifier: MIT\r\npragma solidity ^0.8.0;\r\n\r\ncontract KIManagement {\r\n    // Struct to store document details\r\n    struct Document {\r\n        string hash;\r\n        bool isVerified;\r\n    }\r\n\r\n    // Struct to store Key Individual details\r\n    struct KeyIndividual {\r\n        string name;\r\n        string qualification;\r\n        string licenseType;\r\n        string experience;\r\n        mapping(uint256 => Document) documents;\r\n        uint256 documentCount;\r\n        bool isVerified;\r\n    }\r\n\r\n    // Mapping to store Key Individuals\r\n    mapping(address => KeyIndividual) public keyIndividuals;\r\n    address public admin;\r\n\r\n    // Events\r\n    event KIRegistered(address indexed kiAddress, string name);\r\n    event DocumentUploaded(address indexed kiAddress, uint256 documentIndex, string documentHash);\r\n    event DocumentVerified(address indexed kiAddress, uint256 documentIndex);\r\n    event KIVerified(address indexed kiAddress);\r\n\r\n    // Modifier to restrict access to admin only\r\n    modifier onlyAdmin() {\r\n        require(msg.sender == admin, \"Only admin can perform this action\");\r\n        _;\r\n    }\r\n\r\n    // Constructor to set the admin\r\n    constructor() {\r\n        admin = msg.sender;\r\n    }\r\n\r\n    // Function to register a new Key Individual\r\n    function registerKI(\r\n        string memory _name,\r\n        string memory _qualification,\r\n        string memory _licenseType,\r\n        string memory _experience\r\n    ) public {\r\n        require(bytes(keyIndividuals[msg.sender].name).length == 0, \"KI already registered\");\r\n        \r\n        KeyIndividual storage ki = keyIndividuals[msg.sender];\r\n        ki.name = _name;\r\n        ki.qualification = _qualification;\r\n        ki.licenseType = _licenseType;\r\n        ki.experience = _experience;\r\n        ki.documentCount = 0;\r\n        ki.isVerified = false;\r\n\r\n        emit KIRegistered(msg.sender, _name);\r\n    }\r\n\r\n    // Function to upload a document\r\n    function uploadDocument(string memory _documentHash) public {\r\n        KeyIndividual storage ki = keyIndividuals[msg.sender];\r\n        require(bytes(ki.name).length != 0, \"KI not registered\");\r\n\r\n        ki.documents[ki.documentCount] = Document({\r\n            hash: _documentHash,\r\n            isVerified: false\r\n        });\r\n        emit DocumentUploaded(msg.sender, ki.documentCount, _documentHash);\r\n        ki.documentCount++;\r\n    }\r\n\r\n    // Function for admin to verify a document\r\n    function verifyDocument(address _kiAddress, uint256 _documentIndex) public onlyAdmin {\r\n        KeyIndividual storage ki = keyIndividuals[_kiAddress];\r\n        require(bytes(ki.name).length != 0, \"KI not registered\");\r\n        require(_documentIndex < ki.documentCount, \"Invalid document index\");\r\n\r\n        ki.documents[_documentIndex].isVerified = true;\r\n        emit DocumentVerified(_kiAddress, _documentIndex);\r\n\r\n        // Check if all documents are verified\r\n        bool allVerified = true;\r\n        for (uint256 i = 0; i < ki.documentCount; i++) {\r\n            if (!ki.documents[i].isVerified) {\r\n                allVerified = false;\r\n                break;\r\n            }\r\n        }\r\n\r\n        if (allVerified) {\r\n            ki.isVerified = true;\r\n            emit KIVerified(_kiAddress);\r\n        }\r\n    }\r\n\r\n    // Function to get Key Individual details\r\n    function getKIDetails(address _kiAddress) public view returns (\r\n        string memory name,\r\n        string memory qualification,\r\n        string memory licenseType,\r\n        string memory experience,\r\n        uint256 documentCount,\r\n        bool isVerified\r\n    ) {\r\n        KeyIndividual storage ki = keyIndividuals[_kiAddress];\r\n        return (ki.name, ki.qualification, ki.licenseType, ki.experience, ki.documentCount, ki.isVerified);\r\n    }\r\n\r\n    // Function to get details of a specific document\r\n    function getDocumentDetails(address _kiAddress, uint256 _documentIndex) public view returns (\r\n        string memory hash,\r\n        bool isVerified\r\n    ) {\r\n        KeyIndividual storage ki = keyIndividuals[_kiAddress];\r\n        require(_documentIndex < ki.documentCount, \"Invalid document index\");\r\n        Document storage doc = ki.documents[_documentIndex];\r\n        return (doc.hash, doc.isVerified);\r\n    }\r\n}\r\n",
  "sourcePath": "C:\\Users\\217021035\\Desktop\\UKZN 2024\\Final Year Design Project\\kiManagementSystem\\contracts\\KIManagement.sol",
  "compiler": {
    "name": "solc",
    "version": "0.8.21+commit.d9974bed.Emscripten.clang"
  },
  "schemaVersion": "3.4.16",
  "updatedAt": "2024-11-16T03:19:24.175Z",
  "devdoc": {
    "kind": "dev",
    "methods": {},
    "version": 1
  },
  "userdoc": {
    "kind": "user",
    "methods": {},
    "version": 1
  }
}